:100000000C94E3000C940B010C940B010C940B0169
:100010000C940B010C940B010C940B010C940B0130
:100020000C940B010C940B010C943E040C94A7044B
:100030000C940B010C940B010C940B010C940B0110
:100040000C940B010C940B010C940B010C940B0100
:100050000C940B010C940B010C940B010C94F60600
:100060000C940B010C940B010C940B010C940B01E0
:100070000C940B010C940B010C940B010C940B01D0
:100080000C940B010C940B010C940B010C940B01C0
:100090000C940B010C940B010C940B010C940B01B0
:1000A0000C940B010C940B010C940B0133013601E1
:1000B000250129012D015701570157013A013E0140
:1000C000420148014C0157015201080B0002020293
:1000D00001000904000001020200000524001001D3
:1000E0000524010101042402060524060001070578
:1000F000810310004009040100020A000000070506
:1001000002024000000705830240000004030904C6
:1001100041646166727569740046656174686572F0
:1001200020333275340012010002000000409A238F
:100130000C8000010102030112010002EF020140E4
:100140009A230C800001010203010000000024003A
:1001500027002A002D0030000000000025002800A4
:100160002B002E00310004040404040304050202E1
:100170000202040302020202060606060606040440
:1001800002020204040408020110408040102040D2
:10019000804080080204018040201002011080107D
:1001A000204040200000000200090F00000304016D
:1001B000000C000000000000000000000000000033
:1001C00000000000440811241FBECFEFDAE0DEBFBC
:1001D000CDBF12E0A0E0B1E0ECECF0E102C0059090
:1001E0000D92AC35B107D9F722E0ACE5B2E001C021
:1001F0001D92AD3CB207E1F710E0C3EED0E004C0C1
:100200002197FE010E945908C23ED107C9F70E94FA
:1002100040070C9464080C940000E1EBF1E0449179
:10022000E2E9F1E02491E3E7F1E09491992309F404
:1002300051C04423E1F150E0FA013197EF30F1056C
:10024000B0F5EA5AFF4F0C945908309180003F777F
:1002500007C0309180003F7D03C030918000377F20
:100260003093800024C034B53F7702C034B53F7D61
:1002700034BD1DC0309190003F7707C03091900091
:100280003F7D03C030919000377F309390000FC0C6
:100290003091C0003F7703C03091C0003F7D309364
:1002A000C00005C03091C200377F3093C200E92FF3
:1002B000F0E0EE0FFF1FE85AFE4FA591B4919FB7F3
:1002C000F894EC91811103C020952E2301C02E2BB0
:1002D0002C939FBF0895FC0180917C02811103C083
:1002E0008FEF9FEF08959FB7F89482E08093E90025
:1002F0002091F20030E01216130614F421E030E0F1
:100300002115310551F084E680937B028091F10044
:1003100080838091F200882319F09FBFC90108955E
:100320008BE68093E800F9CF8091730281110DC0B4
:1003300082E080936F0284E08093700210927202D8
:100340001092710281E0809373028FE692E008952B
:1003500040916802509169022091660230916702D3
:1003600042175307B4F49091E8009570E1F390912F
:10037000E80092FD19C08093F1008091680290918D
:10038000690201968F739927892B19F48EEF809358
:10039000E800809168029091690201969093690249
:1003A0008093680281E0089580E00895CF92DF9203
:1003B000EF92FF920F931F93CF93DF931F92CDB7CE
:1003C000DEB7182F062FE42E862F880F8E5F9983B5
:1003D0000E94A80183E00E94A801F12EC12E9981FC
:1003E000D92E8C2D8F19801798F4F601E7FE02C0E4
:1003F000849101C080810E94A801182F80E00E9492
:10040000A8018123FFEFCF1ADF0A8111EACF01C0D3
:1004100081E00F90DF91CF911F910F91FF90EF90AE
:10042000DF90CF900895DF92EF92FF920F931F938A
:10043000CF93DF93D82E8A017B01E40EF51EEB01EA
:10044000CE15DF0571F0D7FE03C0FE01849101C017
:1004500088810E94A80121968111F2CF8FEF9FEF32
:1004600001C0C801DF91CF911F910F91FF90EF90D4
:10047000DF9008950F931F93CF93DF931F92CDB713
:10048000DEB782E0898342E450E06AEC70E080E805
:100490000E9413020E949401DC0112960D911C919E
:1004A00013970115110569F0D801ED91FC910280B7
:1004B000F381E02DBE016F5F7F4FC801099597FF63
:1004C00007C089810F90DF91CF911F910F910895FF
:1004D000F80100851185E5CFCF92DF92EF92FF9270
:1004E0000F931F93CF93DF936C017A018B01C0E0D0
:1004F000D0E0CE15DF0589F0D8016D918D01D601D0
:10050000ED91FC910190F081E02DC6010995892BB8
:1005100011F47E0102C02196ECCFC701DF91CF918B
:100520001F910F91FF90EF90DF90CF900895CF93A0
:10053000DF931F92CDB7DEB76983DC01ED91FC91AB
:100540000280F381E02D41E050E0BE016F5F7F4FFC
:1005500009950F90DF91CF91089583E08093E90092
:100560008091F200882319F08AE38093E8000895CF
:10057000CF93DF931F92CDB7DEB7FC0184859585BD
:1005800097FD05C02FEF3FEF358724870BC0CE01C5
:1005900001960E946B01019719F4898190E002C0D5
:1005A0008FEF9FEF0F90DF91CF9108950F931F93DF
:1005B000CF93DF931F92CDB7DEB78C01FC0184850A
:1005C000958597FF0EC0CE0101960E946B010197A1
:1005D00019F4298130E002C02FEF3FEFF801358791
:1005E0002487F801848595850F90DF91CF911F9125
:1005F0000F910895FC018485958597FD0BC09FB7E9
:10060000F89482E08093E9008091F2009FBF90E02F
:10061000019608959FB7F89482E08093E900809155
:10062000F2009FBF90E008953FB7F8948091610277
:1006300090916202A0916302B091640226B5A89BDA
:1006400005C02F3F19F00196A11DB11D3FBFBA2F64
:10065000A92F982F8827820F911DA11DB11DBC01C4
:10066000CD0143E0660F771F881F991F4A95D1F788
:1006700008958F929F92AF92BF92CF92DF92EF92A6
:10068000FF926B017C010E9414034B015C01C114B9
:10069000D104E104F104F1F00E941403DC01CB0168
:1006A00088199909AA09BB09883E9340A105B1059B
:1006B00070F321E0C21AD108E108F10888EE880E33
:1006C00083E0981EA11CB11CC114D104E104F10403
:1006D00019F7DDCFFF90EF90DF90CF90BF90AF90F4
:1006E0009F908F9008958F929F92AF92BF92CF92DA
:1006F000DF92EF92FF920F931F93CF93DF935C01F2
:100700006B018A0180910B01882309F45DC08091FF
:100710007C02882309F458C080916C0280FF05C0D8
:100720008091E00082608093E000E8018AEFF82E7B
:1007300093E0E92E2FE3822E3AE3932E209709F4DB
:100740003DC08FB7F894E092E9009091E80095FFE2
:1007500006C09091F200282D291B922F01C090E035
:100760008FBF91110AC0FA94FF2071F161E070E02F
:1007700080E090E00E943903E1CF292F30E0C217DA
:10078000D3070CF49C2F8FB7F894E092E9002091E6
:10079000E80025FF11C0292F30E0C21BD30BF60162
:1007A000915020F041914093F100FACFC20ED31E38
:1007B0009091E80095FF12C08FBFC0CF84E6809370
:1007C0006A021016110644F081E090E0F50193836F
:1007D000828380E090E005C0C80103C09092E800E9
:1007E000EBCFDF91CF911F910F91FF90EF90DF90B2
:1007F000CF90BF90AF909F908F900895BC010097CD
:1008000091F0FC0101900020E9F73197AF01481BFE
:10081000590BE0917D02F0917E020280F381E02D80
:100820008DE792E0099480E090E00895CF93DF9304
:100830000E94FE03EC0180E391E00E94FE038C0F16
:100840009D1FDF91CF91089568EE73E080E090E006
:100850000E9439038FEF9FEF90938A028093890261
:1008600083E391E00E94160486E092E00E94160461
:1008700081E080936E0208950E945F081F920F929C
:100880000FB60F9211248F939F938091E100909166
:10089000E100937F9093E10083FF0FC01092E90085
:1008A00091E09093EB001092EC0092E39093ED00B6
:1008B00010927C0298E09093F00082FF1CC093E0BD
:1008C0009093E9009091F200992319F09AE39093A4
:1008D000E80090916A02992329F090916A02915060
:1008E00090936A0290917B02992329F090917B0268
:1008F000915090937B0284FF10C08091E2008E7E25
:1009000081608093E2008091E1008F7E8093E1001E
:1009100080916C028E7E806111C080FF11C0809139
:10092000E2008E7E80618093E2008091E1008E7E05
:100930008093E10080916C028E7E816080936C02D6
:100940009F918F910F900FBE0F901F9018951F923F
:100950000F920FB60F921124CF92DF92EF92FF9277
:100960000F931F932F933F934F935F936F937F93B7
:100970008F939F93AF93BF93EF93FF93CF93DF93A7
:10098000CDB7DEB76C97DEBFCDBF1092E900809186
:10099000E80083FF0CC2FE017596DE2ECF2E88E0A4
:1009A0008E0F8E1729F09091F10090833196F9CF38
:1009B00084E680937B0282EF8093E8008D8987FF35
:1009C00005C09091E80090FFFCCF03C09EEF90938C
:1009D000E800982F907609F0C5C09E892F89188D60
:1009E00091110CC0803829F480916D028093F10040
:1009F00002C01092F1001092F1004EC1422F50E05F
:100A0000512B913051F4811147C14130510509F00A
:100A100043C180916D028D7F0BC0933061F48111D1
:100A20003BC14130510509F037C180916D028260B0
:100A300080936D0231C1953041F48091E80080FFD0
:100A4000FCCF20682093E30027C1963009F05EC0F8
:100A5000EB8CFC8C1092E9001092690210926802F3
:100A6000123091F510926702109266020E943A02CB
:100A700099E0BE016F5F7F4FDB01E92F1D92EA9580
:100A8000E9F799831A8391E09E8390EA98879AEF19
:100A900099872091680230916902275F3F4F3C831C
:100AA0002B838D831092E9001092690210926802E4
:100AB000F0926702E092660249E050E080E00E9416
:100AC00013020E943A02E8C0F0926702E0926602C6
:100AD0000E949401DC011296ED90FC901397E114B2
:100AE000F10409F4C7C0D701ED91FC910480F581B0
:100AF000E02D6D2D7C2DC7010995009719F00CF0A4
:100B0000CBC0CEC0F701E084F184E9CF973009F47F
:100B1000C7C0983021F481E08093F100BDC09930C6
:100B200009F0BAC0837009F0BBC0EAE2F1E081E0ED
:100B300021E036E39081992361F08093E9002093CE
:100B4000EB0091919093EC003093ED008F5F873034
:100B500089F78EE78093EA001092EA008F898093EC
:100B60007C029AC08B8D9C8D1092E90010926902D4
:100B7000109268029093670280936602898D8111BA
:100B80005FC08E899D89913A59F4813209F088C0FD
:100B900047E050E064E071E080E00E9413027CC016
:100BA000913209F07DC0833289F4888D90E0982FCE
:100BB00088272F89822BA0E0B0E0809300019093DA
:100BC0000101A0930201B093030166C08032B1F429
:100BD0008091E80082FFFCCFE4E0F1E087E08E0F37
:100BE0008E1729F09091F10090833196F9CF84E629
:100BF00080937B028BEF8093E80006C0823209F07D
:100C00004BC08F8980930B0180916B02882319F070
:100C1000EEEFFAE002C0E0E0F8E08091040190918C
:100C20000501A0910601B0910701803B9440A10508
:100C3000B10509F0A0C080910B0180FF83C09BC06B
:100C40000E949401DC0112960D911C9113970115DD
:100C5000110531F1D801ED91FC910190F081E02D69
:100C60006D2D7C2DC8010995811116C0F8010085F4
:100C70001185EDCF1130C1F0133091F48F898823A5
:100C800009F455C08230E9F440E86CE089E191E074
:100C90000E94D601882321F08EEF8093E80087C060
:100CA00081E28093EB0083C08B8D9C8D089711F4BB
:100CB0001093650280916502811136C066E271E091
:100CC00038C0813029F440E868E080E191E0E0CF6D
:100CD000833031F70E949401DC011296ED90FC9074
:100CE00013978E010F5F1F4F6801E114F10479F033
:100CF000D701ED91FC910680F781E02DB801C70185
:100D00000995080F111DF701E084F184EECFD80199
:100D10001C92F60101900020E9F73197BF016C1990
:100D20007D0940E0C601B4CF68E371E002C06CE029
:100D300071E06115710509F4B3CFFB01449150E0F6
:100D400080E82BCFEE3F2AE0F20731F080819181DD
:100D50009093FF0A8093FE0A87E797E79183808349
:100D60009BE088E10FB6F894A895809360000FBED1
:100D70009093600091CF0FB6F894A8958091600091
:100D8000886180936000109260000FBEA895EE3FCE
:100D90008AE0F80739F08091FE0A9091FF0A91836A
:100DA00080837ACF1092FF0A1092FE0A75CF6C965C
:100DB0000FB6F894DEBF0FBECDBFDF91CF91FF918C
:100DC000EF91BF91AF919F918F917F916F915F91C3
:100DD0004F913F912F911F910F91FF90EF90DF90D6
:100DE000CF900F900FBE0F901F9018951F920F92EB
:100DF0000FB60F9211242F933F938F939F93AF932E
:100E0000BF9380915D0290915E02A0915F02B091CC
:100E1000600230915C0226E0230F2D3720F4029609
:100E2000A11DB11D05C029E8230F0396A11DB11D09
:100E300020935C0280935D0290935E02A0935F0218
:100E4000B09360028091610290916202A09163026E
:100E5000B09164020196A11DB11D8093610290932F
:100E60006202A0936302B0936402BF91AF919F911D
:100E70008F913F912F910F900FBE0F901F9018955B
:100E8000789484B5826084BD84B5816084BD85B565
:100E9000826085BD85B5816085BD80916E00816071
:100EA00080936E0010928100809181008260809317
:100EB0008100809181008160809381008091800019
:100EC0008160809380008091910082608093910086
:100ED0008091910081608093910080919000816069
:100EE000809390008091C10084608093C1008091C4
:100EF000C10082608093C1008091C10081608093B5
:100F0000C1008091C30081608093C3008091C000C4
:100F100082608093C0008091C20081608093C20093
:100F200080917A00846080937A0080917A00826058
:100F300080937A0080917A008E7F80937A008091EE
:100F40007A00806880937A0010927C0210926D0281
:100F500010926C028091D70081608093D70080EA64
:100F60008093D80089B58F7E89BD89B5826089BD9F
:100F700009B400FEFDCF61E070E080E090E00E94E7
:100F800039038091D8008F7C80618093D800809154
:100F9000E000807F8093E0008091E1008E7E80936E
:100FA000E1008DE08093E200EEEFFFE78591949100
:100FB0008B3F9C4D19F481E080936B0210926E027E
:100FC000E2E9F1E02491E3E7F1E08491882399F0EC
:100FD00090E0880F991FFC01E65BFE4FA591B4914C
:100FE000FC01E85AFE4F859194918FB7F894EC91EB
:100FF000E22BEC938FBF81E00E940D0168EE73E05D
:1010000080E090E00E943903C0910B016AE070E03B
:1010100080E090E00E943903C1110E94240480E026
:101020000E940D01C0E0D0E010910B016AE070E079
:1010300080E090E00E943903112321F080916E023C
:101040008823E1F010910B016AE070E080E090E00D
:101050000E943903111104C080916E02811111C0E8
:1010600080916E02882329F08CE091E00E941604A2
:10107000FFCF2097C9F20E940000D6CF0E9424041F
:10108000E1CF10926E02ECCFEDE7F2E01382128214
:1010900088EE93E0A0E0B0E084839583A683B783D5
:1010A0008DE191E0918380838FEF9FEF9587848717
:1010B0000895EE0FFF1F0590F491E02D099481E053
:0C10C00090E0F8940C946408F894FFCFC2
:1010CC00FFFFFFFF00E100000000000043697263B6
:1010DC002D42415349433E2000000000009702730B
:1010EC0003FA02B802D602AD0200C18081000000F2
:1010FC000D0A002020205F5F5F20205F2020202031
:10110C002020202020202020202020205F5F5F2016
:10111C002020205F202020205F5F5F20205F5F5F0A
:10112C0020205F5F5F200D0A20202F205F5F7C282E
:10113C005F29205F205F20205F5F20205F5F5F20A2
:10114C007C205F202920202F5F5C20202F205F5FD8
:10115C007C7C5F205F7C2F205F5F7C0D0A207C20D5
:10116C00285F5F207C207C7C20275F7C2F205F7C8D
:10117C007C5F5F5F7C7C205F205C202F205F205C8D
:10118C00205C5F5F205C207C207C7C20285F5F20C3
:10119C000D0A20205C5F5F5F7C7C5F7C7C5F7C2029
:1011AC00205C5F5F7C20202020207C5F5F5F2F2FE6
:1011BC005F2F205C5F5C7C5F5F5F2F7C5F5F5F7C81
:1011CC005C5F5F5F7C004369726375697442415375
:1011DC0049432028414B4120436972632D424153BE
:1011EC004943292042792055445853284461766953
:1011FC0064204D61726B617269616E290A476F20C0
:10120C00746F2022756478732E6D652F4369726339
:0C121C007569744261736963220A000066
:1070000055C000006EC000006CC000006AC00000E7
:1070100068C0000066C0000064C0000062C00000DC
:1070200060C000005EC00000DAC400005AC000006A
:1070300058C0000056C0000054C0000052C00000FC
:1070400050C0000076C000004CC000004AC00000E4
:1070500048C0000046C0000044C0000042C000001C
:1070600040C000003EC000003CC000003AC000002C
:1070700038C0000036C0000034C0000032C000003C
:1070800030C000002EC000002CC000002AC000004C
:1070900028C0000026C0000024C0000022C000005C
:1070A00020C000001EC000001CC0000011241FBE34
:1070B000CFEFDAE0DEBFCDBF11E0A0E0B1E0EEEF50
:1070C000FEE702C005900D92AA3CB107D9F711E086
:1070D000AAECB1E001C01D92A03EB107E1F781D357
:1070E0000CC78ECFF89410926F001092810010920E
:1070F00085001092840081E085BF15BE47980C94EE
:10710000000008952091D4013091D5012F5F3F4FA9
:107110003093D5012093D401932F37FF03C08EEF16
:10712000831B982F990F921710F447980895479A48
:1071300008951F920F920FB60F9211242F938F93E1
:107140009F93EF93FF93109285001092840080919B
:10715000CA019091CB01009729F001979093CB0140
:107160008093CA018091CC019091CD01009729F0C4
:1071700001979093CD018093CC01E0E0F0E0859100
:1071800094918F5F9F4F49F08091CE019091CF01F4
:1071900001969093CF018093CE01FF91EF919F9143
:1071A0008F912F910F900FBE0F901F90189584E034
:1071B0008093E9000DC08091E8008B778093E80010
:1071C00003C08EB3882351F08091E80082FFF9CF8D
:1071D0008091E80085FFEFCF8091F1000895982F0E
:1071E00083E08093E9008091E80085FD0DC08091E7
:1071F000E8008E778093E80003C08EB3882361F0A7
:107200008091E80080FFF9CF9093F10084E690E050
:107210009093CB018093CA0108954F925F926F9231
:107220007F928F929F92AF92BF92CF92DF92EF9216
:10723000FF920F931F93CF93DF9384E08093E90035
:107240008091E80082FF56C284E690E09093CD01E1
:107250008093CC01ACDF182F853481F48CE195E26A
:107260009093CF018093CE0107B600FCFDCFF99932
:10727000FECF81E180935700E89503C0843519F46F
:1072800096DF8DE00DC28C34E1F38035D1F3843785
:1072900021F484E4A4DF80E003C2813611F489E59F
:1072A000FFC18134B1F483DF182F81DF90E0880FB4
:1072B000991FAA2797FDA095BA2F312F330F20E0F1
:1072C000442737FD4095542F822B932BA42BB52BAD
:1072D000B8C1803711F483E5E3C1833549F4C0E0D8
:1072E000D1E089917CDF21E0C730D207D1F7D9C145
:1072F000863521F481E373DF80E3D2C1833731F433
:1073000087E86DDF85E96BDF8EE1CAC18536B9F4A8
:10731000E0E0F0E093E085E090935700E89507B651
:1073200000FCFDCF80935700E89507B600FCFDCF29
:10733000E058FF4FA0E7E030FA0771F7A2CF82379D
:1073400039F4E1E0F0E089E0809357008491A8C12E
:10735000863439F4E0E0F0E089E0809357008491CE
:107360009FC18E3439F4E3E0F0E089E08093570068
:10737000849196C1813539F4E2E0F0E089E08093B0
:10738000570084918DC1823631F489E528DF80E091
:1073900026DF80E885C1823419F0873609F0E5C020
:1073A0001092CF011092CE0102DF082F00DFF82EDD
:1073B000FEDE682E8554823008F071C1902F80E087
:1073C000CF2DD0E0C82BD92B10926F00173609F0C3
:1073D0004BC081E180935700E895DD24CC24C39411
:1073E0003FC0E090D001F090D1010091D201109106
:1073F000D301B6E46B16D9F4ED2DF0E0EE29FF29A8
:10740000E4918E2FECDEDD2081F082E090E0A0E0C0
:10741000B0E0E80EF91E0A1F1B1FE092D001F092A7
:10742000D1010093D2011093D301DC2418C0D801FC
:10743000C701B695A7959795879549D5D0DE82E087
:1074400090E0A0E0B0E0E80EF91E0A1F1B1FE092DA
:10745000D001F092D1010093D2011093D301219772
:10746000209709F0BECF7DC08090D0019090D101CF
:10747000A090D201B090D30196E4691609F05DC0E6
:1074800083E0F40180935700E89507B600FCFDCF38
:1074900054C0F6E46F1661F5772031F1E090D00129
:1074A000F090D1010091D2011091D30180DED82E4D
:1074B000CC24852D90E08C299D29F7010C01409268
:1074C0005700E895112482E090E0A0E0B0E0E80EDB
:1074D000F91E0A1F1B1FE092D001F092D101009308
:1074E000D2011093D30102C062DE582E742423C04F
:1074F000E090D001F090D1010091D2011091D30120
:1075000016950795F794E79452DE682FC701E7D4E4
:107510008091D0019091D101A091D201B091D3017D
:107520000296A11DB11D8093D0019093D101A0932B
:10753000D201B093D301219704C055247724442469
:107540004394209709F0A5CF96E4691641F485E0AD
:10755000F40180935700E89507B600FCFDCF8DE05D
:107560003EDE82E080936F009CC0833471F4009112
:10757000D0011091D1011BDE90E021E0F8010C0157
:1075800020935700E89511247CCE833619F5E090BE
:10759000D001F090D1010091D2011091D30107DE0A
:1075A000F701E16090E021E00C0120935700E8959D
:1075B000112482E090E0A0E0B0E0E80EF91E0A1F7E
:1075C0001B1FE092D001F092D1010093D2011093E1
:1075D000D30157CE8D3661F4E091D001F091D10105
:1075E00085E080935700E89507B600FCFDCF49CEB3
:1075F000823551F4E091D001F091D10105911491BF
:10760000812FEDDD802F4CC0843421F5E090D00136
:10761000F090D1010091D2011091D30116950795F8
:10762000F794E794C4DD682FC70159D48091D00145
:107630009091D101A091D201B091D3010296A11DE8
:10764000B11D8093D0019093D101A093D201B0934A
:10765000D30117CE843609F5E090D001F090D10126
:107660000091D2011091D301D801C701B695A79519
:10767000979587952CD4B3DD82E090E0A0E0B0E050
:10768000E80EF91E0A1F1B1FE092D001F092D101F3
:107690000093D2011093D30104C08B3111F08FE31A
:1076A0009EDD83E08093E9009091E8008091E800FE
:1076B0008E778093E80095FF04C010C08EB38823B6
:1076C000C9F08091E80080FFF9CF8091E8008E77C3
:1076D0008093E80003C08EB3882361F08091E800B6
:1076E00080FFF9CF84E08093E9008091E8008B77F8
:1076F0008093E800DF91CF911F910F91FF90EF9061
:10770000DF90CF90BF90AF909F908F907F906F90C1
:107710005F904F9008959091D801892F8F77813293
:1077200049F58091D9018032A1F0813219F5913A61
:1077300009F58091E800877F8093E8008DE091E073
:1077400067E070E0FBD18091E8008B778093E800E0
:107750000895913279F48091E800877F8093E80062
:107760008DE091E067E070E04DD28091E8008E7787
:107770008093E800089582E061EC42E0A7D083E0C6
:1077800061E842E1A3D084E060E842E19FC084B7B1
:10779000877F84BF88E10FB6F894809360001092D1
:1077A00060000FBE20E880E090E00FB6F8942093D0
:1077B0006100809361000FBE81E085BF92E095BFBC
:1077C0003F9AE1E6F0E0208310824798109289000A
:1077D0008DE78093880090936F0083E08093810011
:1077E000E6C04091000850910108109201081092E3
:1077F000000824B714BE88E10FB6F89480936000A7
:10780000109260000FBEE0E0F0E0859194918F5FF0
:107810009F4F71F020FD0BC021FD0AC0283041F4BC
:107820008091090190910A014817590709F05ADC23
:10783000AEDF78941092CF011092CE010CC0EDDC37
:1078400034D38091CE019091CF018151974210F0B5
:107850001092140157DC80911401882381F78091E4
:10786000E00081608093E0003DDC80E090E00895DE
:10787000FA01923049F0933061F09130F9F485E1EA
:1078800091E022E130E01EC087E291E02EE330E09B
:1078900019C0882329F485E691E024E030E012C085
:1078A000813029F489E691E022E230E00BC0823099
:1078B00029F487E991E028E130E004C080E090E01D
:1078C00020E030E091838083C90108958093E9002E
:1078D0008091EB0081608093EB001092ED0060934B
:1078E000EC004093ED008091EE00881F8827881FF0
:1078F00008958091D80188238CF403C08EB3882327
:10790000B1F08091E80082FFF9CF8091E8008B7799
:107910008093E80008958EB3882349F08091E800B1
:1079200080FFF9CF8091E8008E778093E80008957A
:10793000EF92FF920F931F9345D04CD008ED10E0CB
:10794000F80180818F778083808180688083808147
:107950008F7D808319BC1EBA1092D60180EEE82E6E
:10796000F12CF70180818B7F8083F8018081816019
:10797000808380E060E042E0A9DFE1EEF0E080811A
:107980008E7F8083E2EEF0E0808181608083808161
:1079900088608083F70180818E7F8083F8018081F9
:1079A000806180831F910F91FF90EF900895E7ED24
:1079B000F0E08081816080838AE482BF81E08093EF
:1079C000D701B6CFE8EDF0E080818E7F8083109202
:1079D000E20008951092DA001092E10008951F92DB
:1079E0000F920FB60F9211242F933F934F935F93F3
:1079F0006F937F938F939F93AF93BF93EF93FF9377
:107A00008091DA0080FF1AC08091D80080FF16C0F4
:107A10008091DA008E7F8093DA008091D90080FF18
:107A20000AC019BC82E089BD09B400FEFDCF81E027
:107A30008EBB3AD203C019BC1EBA36D28091E10087
:107A400080FF17C08091E20080FF13C08091E200A8
:107A50008E7F8093E2008091E20080618093E2005B
:107A60008091D80080628093D80019BC85E08EBBDD
:107A70001BD28091E10084FF2BC08091E20084FF43
:107A800027C019BC82E089BD09B400FEFDCF8091FA
:107A9000D8008F7D8093D8008091E1008F7E809305
:107AA000E1008091E2008F7E8093E2008091E2000D
:107AB00081608093E2008091D601882331F4809127
:107AC000E30087FD02C081E001C084E08EBBECD101
:107AD0008091E10083FF21C08091E20083FF1DC0FF
:107AE0008091E100877F8093E10082E08EBB10925D
:107AF000D6018091E1008E7F8093E1008091E200C9
:107B00008E7F8093E2008091E20080618093E200AA
:107B100080E060E042E0DADEC7D1FF91EF91BF91F3
:107B2000AF919F918F917F916F915F914F913F9115
:107B30002F910F900FBE0F901F9018959C014091B0
:107B4000DE015091DF014617570718F4F90190E064
:107B500044C06115710511F0AB01F8CF8091E800C8
:107B60008E778093E80040E050E0F0CF8EB388231A
:107B700009F444C0853009F443C08091E80083FFD4
:107B800002C081E008958091E80082FD31C08091BB
:107B9000E80080FF22C08091F3009091F200782FDE
:107BA00060E0292F30E0262B372B07C0819180938E
:107BB000F100415050402F5F3F4F4115510519F0E2
:107BC0002830310598F390E02830310509F491E030
:107BD0008091E8008E778093E8004115510531F6D9
:107BE000992321F605C08EB3882341F0853041F0FA
:107BF0008091E80082FFF7CF80E0089582E0089549
:107C000083E008959C016115710529F48091E800D5
:107C10008B778093E800F90126C08EB3882391F119
:107C2000853091F18091E80083FF02C081E00895E2
:107C30008091E80082FFF1CF06C08091F10081932E
:107C40006150704059F02091F3008091F200322F82
:107C500020E090E0822B932B892B79F78091E8002C
:107C60008B778093E80061157105B9F605C08EB376
:107C7000882341F0853041F08091E80080FFF7CF04
:107C800080E0089582E0089583E008950F931F93A4
:107C9000DF93CF9300D0CDB7DEB7E8EDF1E0809170
:107CA000F100819381E0E03EF807C9F734DD80916F
:107CB000E80083FFE4C08091D8019091D90195300C
:107CC00009F46DC0963040F4913081F1913070F03C
:107CD000933009F0D4C02AC0983009F4A3C0993079
:107CE00009F4B2C0963009F0CAC07CC0803809F4EB
:107CF000C6C0823809F0C3C08091DC0187708093D0
:107D0000E9008091EB001092E9002091E800277FC4
:107D10002093E80090E025E0969587952A95E1F775
:107D200081708093F1001092F10087C0882319F0D0
:107D3000823009F0A4C08F71823009F0A0C0809118
:107D4000DA01882331F52091DC01277009F497C00E
:107D50002093E9008091EB0080FF1BC0933021F459
:107D60008091EB00806213C08091EB008061809372
:107D7000EB0081E090E002C0880F991F2A95E2F79E
:107D80008093EA001092EA008091EB008860809373
:107D9000EB001092E9008091E800877F51C08823B2
:107DA00009F06DC01091DA011F770FB7F894809138
:107DB000E800877F8093E8009CDD8091E80080FFE9
:107DC000FCCF8091E3008078812B8093E300806872
:107DD0008093E300112311F482E001C083E08EBBA5
:107DE0000FBF4DC08058823008F049C08091DA0141
:107DF0009091DB016091DC01AE014F5F5F4F38DD98
:107E0000BC01009709F43BC08091E800877F809314
:107E1000E80089819A8192DE8091E8008B778093D7
:107E2000E8002DC0803859F58091E800877F809365
:107E3000E8008091D6018093F1008091E8008E7770
:107E40008093E80056DD1BC08823C9F49091DA01C5
:107E50009230A8F48091E800877F8093E8009093A7
:107E6000D60147DD8091D601882331F48091E3006B
:107E700087FD02C081E001C084E08EBB7CDC809184
:107E8000E80083FF0AC08091EB0080628093EB00E2
:107E90008091E800877F8093E8000F900F90CF914A
:107EA000DF911F910F91089508951F938EB388233A
:107EB00061F01091E9001092E9008091E80083FFE1
:107EC00001C0E4DE17701093E9001F910895F9993D
:107ED000FECF92BD81BDF89A992780B50895262FCF
:107EE000F999FECF1FBA92BD81BD20BD0FB6F8949F
:0E7EF000FA9AF99A0FBE01960895F894FFCF02
:107EFE004341544552494E41007777000800000037
:107F0E00000000080112011001020000089A230C63
:107F1E000001000201000109023E00020100803250
:107F2E0009040000010202010005240010010424CE
:107F3E0002040524060001070582030800FF090458
:107F4E000100020A000000070504021000010705E7
:107F5E00830210000104030904220341006400613E
:107F6E00006600720075006900740020004600650E
:107F7E00006100740068006500720020003300325A
:107F8E0000750034000000180341006400610066B3
:107F9E00007200750069007400200049006E0064D4
:107FAE000075007300740072006900650073002094
:0A7FBE00004C004C004300000000DE
:040000030000700089
:00000001FF
